{
  "transactions": [
    {
      "hash": "0xac4effa1739a96614553043229bf138438f9295ae393850bf78563b14a00ffbc",
      "transactionType": "CALL",
      "contractName": "PumpFun",
      "contractAddress": "0xd570bf4598d3ccf214e288dd92222b8bd3134984",
      "function": "buy(address,uint256,uint256)",
      "arguments": [
        "0xDb3D3638345DFE3b27103f2e525862e446BfFDef",
        "1000000000000000000000000",
        "50000000000000000"
      ],
      "transaction": {
        "from": "0x0000007eabfc2e6a6b33b21d2f73d58941bab574",
        "to": "0xd570bf4598d3ccf214e288dd92222b8bd3134984",
        "gas": "0x2f6da",
        "value": "0xb1a2bc2ec50000",
        "input": "0xa59ac6dd000000000000000000000000db3d3638345dfe3b27103f2e525862e446bffdef00000000000000000000000000000000000000000000d3c21bcecceda100000000000000000000000000000000000000000000000000000000b1a2bc2ec50000",
        "nonce": "0x8",
        "chainId": "0xaa37dc"
      },
      "additionalContracts": [],
      "isFixedGasLimit": false
    },
    {
      "hash": "0xb9f8e3fca74f5eedf35e0bb85baea520a3091e7c7c9230a6836a989781804284",
      "transactionType": "CALL",
      "contractName": null,
      "contractAddress": "0xdb3d3638345dfe3b27103f2e525862e446bffdef",
      "function": "approve(address,uint256)",
      "arguments": [
        "0xD570bF4598D3ccF214E288dd92222b8Bd3134984",
        "1000000000000000000000000"
      ],
      "transaction": {
        "from": "0x0000007eabfc2e6a6b33b21d2f73d58941bab574",
        "to": "0xdb3d3638345dfe3b27103f2e525862e446bffdef",
        "gas": "0xfd42",
        "value": "0x0",
        "input": "0x095ea7b3000000000000000000000000d570bf4598d3ccf214e288dd92222b8bd313498400000000000000000000000000000000000000000000d3c21bcecceda1000000",
        "nonce": "0x9",
        "chainId": "0xaa37dc"
      },
      "additionalContracts": [],
      "isFixedGasLimit": false
    },
    {
      "hash": "0xe4f8befbba60f56b27478b02bdf64024cde68acaaeace3615eca08e11b0df599",
      "transactionType": "CALL",
      "contractName": "PumpFun",
      "contractAddress": "0xd570bf4598d3ccf214e288dd92222b8bd3134984",
      "function": "sell(address,uint256,uint256)",
      "arguments": [
        "0xDb3D3638345DFE3b27103f2e525862e446BfFDef",
        "1000000000000000000000000",
        "0"
      ],
      "transaction": {
        "from": "0x0000007eabfc2e6a6b33b21d2f73d58941bab574",
        "to": "0xd570bf4598d3ccf214e288dd92222b8bd3134984",
        "gas": "0x1dff9",
        "value": "0x0",
        "input": "0x6a272462000000000000000000000000db3d3638345dfe3b27103f2e525862e446bffdef00000000000000000000000000000000000000000000d3c21bcecceda10000000000000000000000000000000000000000000000000000000000000000000000",
        "nonce": "0xa",
        "chainId": "0xaa37dc"
      },
      "additionalContracts": [],
      "isFixedGasLimit": false
    },
    {
      "hash": "0xb8578b0554b2ea897229da49b6def6bafa7596a0ac6a5339394c5f0beb0690f1",
      "transactionType": "CALL",
      "contractName": "PumpFun",
      "contractAddress": "0xd570bf4598d3ccf214e288dd92222b8bd3134984",
      "function": "buy(address,uint256,uint256)",
      "arguments": [
        "0x1096DE00CF081c2178455fA8873cc08a806C5406",
        "1000000000000000000000000",
        "50000000000000000"
      ],
      "transaction": {
        "from": "0x0000007eabfc2e6a6b33b21d2f73d58941bab574",
        "to": "0xd570bf4598d3ccf214e288dd92222b8bd3134984",
        "gas": "0x3236c",
        "value": "0xb1a2bc2ec50000",
        "input": "0xa59ac6dd0000000000000000000000001096de00cf081c2178455fa8873cc08a806c540600000000000000000000000000000000000000000000d3c21bcecceda100000000000000000000000000000000000000000000000000000000b1a2bc2ec50000",
        "nonce": "0xb",
        "chainId": "0xaa37dc"
      },
      "additionalContracts": [],
      "isFixedGasLimit": false
    },
    {
      "hash": "0x2726da0802b34f856b2afdad393a3f3ada9dcade8fa9718611775568af2dc714",
      "transactionType": "CALL",
      "contractName": null,
      "contractAddress": "0x1096de00cf081c2178455fa8873cc08a806c5406",
      "function": "approve(address,uint256)",
      "arguments": [
        "0xD570bF4598D3ccF214E288dd92222b8Bd3134984",
        "1000000000000000000000000"
      ],
      "transaction": {
        "from": "0x0000007eabfc2e6a6b33b21d2f73d58941bab574",
        "to": "0x1096de00cf081c2178455fa8873cc08a806c5406",
        "gas": "0xfd42",
        "value": "0x0",
        "input": "0x095ea7b3000000000000000000000000d570bf4598d3ccf214e288dd92222b8bd313498400000000000000000000000000000000000000000000d3c21bcecceda1000000",
        "nonce": "0xc",
        "chainId": "0xaa37dc"
      },
      "additionalContracts": [],
      "isFixedGasLimit": false
    },
    {
      "hash": "0x3c9dc94fa3901bd620b4002286c88c14d9153f3eb43697be55c1cfcf33f35087",
      "transactionType": "CALL",
      "contractName": "PumpFun",
      "contractAddress": "0xd570bf4598d3ccf214e288dd92222b8bd3134984",
      "function": "sell(address,uint256,uint256)",
      "arguments": [
        "0x1096DE00CF081c2178455fA8873cc08a806C5406",
        "1000000000000000000000000",
        "0"
      ],
      "transaction": {
        "from": "0x0000007eabfc2e6a6b33b21d2f73d58941bab574",
        "to": "0xd570bf4598d3ccf214e288dd92222b8bd3134984",
        "gas": "0x1fc24",
        "value": "0x0",
        "input": "0x6a2724620000000000000000000000001096de00cf081c2178455fa8873cc08a806c540600000000000000000000000000000000000000000000d3c21bcecceda10000000000000000000000000000000000000000000000000000000000000000000000",
        "nonce": "0xd",
        "chainId": "0xaa37dc"
      },
      "additionalContracts": [],
      "isFixedGasLimit": false
    },
    {
      "hash": "0xa48affcdcf9fc21211bb3f849ac19137f599d32566e441079e12d290d6030a3c",
      "transactionType": "CALL",
      "contractName": "PumpFun",
      "contractAddress": "0xd570bf4598d3ccf214e288dd92222b8bd3134984",
      "function": "buy(address,uint256,uint256)",
      "arguments": [
        "0x6F77088F74B8e6F491E7e381fB211d831b50EA59",
        "1000000000000000000000000",
        "50000000000000000"
      ],
      "transaction": {
        "from": "0x0000007eabfc2e6a6b33b21d2f73d58941bab574",
        "to": "0xd570bf4598d3ccf214e288dd92222b8bd3134984",
        "gas": "0x2f6da",
        "value": "0xb1a2bc2ec50000",
        "input": "0xa59ac6dd0000000000000000000000006f77088f74b8e6f491e7e381fb211d831b50ea5900000000000000000000000000000000000000000000d3c21bcecceda100000000000000000000000000000000000000000000000000000000b1a2bc2ec50000",
        "nonce": "0xe",
        "chainId": "0xaa37dc"
      },
      "additionalContracts": [],
      "isFixedGasLimit": false
    },
    {
      "hash": "0xd4a498e6f82b476235127c99c3af5185f656d9fdd19b78cd64309630e8f57c55",
      "transactionType": "CALL",
      "contractName": null,
      "contractAddress": "0x6f77088f74b8e6f491e7e381fb211d831b50ea59",
      "function": "approve(address,uint256)",
      "arguments": [
        "0xD570bF4598D3ccF214E288dd92222b8Bd3134984",
        "1000000000000000000000000"
      ],
      "transaction": {
        "from": "0x0000007eabfc2e6a6b33b21d2f73d58941bab574",
        "to": "0x6f77088f74b8e6f491e7e381fb211d831b50ea59",
        "gas": "0xfd42",
        "value": "0x0",
        "input": "0x095ea7b3000000000000000000000000d570bf4598d3ccf214e288dd92222b8bd313498400000000000000000000000000000000000000000000d3c21bcecceda1000000",
        "nonce": "0xf",
        "chainId": "0xaa37dc"
      },
      "additionalContracts": [],
      "isFixedGasLimit": false
    },
    {
      "hash": "0xb050098f6e878abe4c98a13e1a5bb526c07d2d31f76dc318b25425ce2124df51",
      "transactionType": "CALL",
      "contractName": "PumpFun",
      "contractAddress": "0xd570bf4598d3ccf214e288dd92222b8bd3134984",
      "function": "sell(address,uint256,uint256)",
      "arguments": [
        "0x6F77088F74B8e6F491E7e381fB211d831b50EA59",
        "1000000000000000000000000",
        "0"
      ],
      "transaction": {
        "from": "0x0000007eabfc2e6a6b33b21d2f73d58941bab574",
        "to": "0xd570bf4598d3ccf214e288dd92222b8bd3134984",
        "gas": "0x1dff9",
        "value": "0x0",
        "input": "0x6a2724620000000000000000000000006f77088f74b8e6f491e7e381fb211d831b50ea5900000000000000000000000000000000000000000000d3c21bcecceda10000000000000000000000000000000000000000000000000000000000000000000000",
        "nonce": "0x10",
        "chainId": "0xaa37dc"
      },
      "additionalContracts": [],
      "isFixedGasLimit": false
    }
  ],
  "receipts": [
    {
      "status": "0x1",
      "cumulativeGasUsed": "0x259621",
      "logs": [
        {
          "address": "0xdb3d3638345dfe3b27103f2e525862e446bffdef",
          "topics": [
            "0xddf252ad1be2c89b69c2b068fc378daa952ba7f163c4a11628f55a4df523b3ef",
            "0x000000000000000000000000d570bf4598d3ccf214e288dd92222b8bd3134984",
            "0x0000000000000000000000000000007eabfc2e6a6b33b21d2f73d58941bab574"
          ],
          "data": "0x00000000000000000000000000000000000000000000d3c21bcecceda1000000",
          "blockHash": "0x7102c165ac1371fb4ba50c408362d5200bc979f3de5d72b29bec142635bef7eb",
          "blockNumber": "0x1b2042e",
          "blockTimestamp": "0x683ae408",
          "transactionHash": "0xac4effa1739a96614553043229bf138438f9295ae393850bf78563b14a00ffbc",
          "transactionIndex": "0x39",
          "logIndex": "0x2",
          "removed": false
        },
        {
          "address": "0xd570bf4598d3ccf214e288dd92222b8bd3134984",
          "topics": [
            "0x671f6af1a2244f88c1a5e6c6310f86653d313027950723ffc12387348a9ed8b3",
            "0x000000000000000000000000db3d3638345dfe3b27103f2e525862e446bffdef",
            "0x0000000000000000000000000000007eabfc2e6a6b33b21d2f73d58941bab574"
          ],
          "data": "0x00000000000000000000000000000000000000000000000000636c45c6f31dfd00000000000000000000000000000000000000000000d3c21bcecceda1000000000000000000000000000000000000000000000000000000000000000000000100000000000000000000000000000000000000000000000000000000683ae408000000000000000000000000000000000000000000000001a0b8d55364ab1dfd00000000000000000000000000000000000000000376bcdecca2731c139c0000",
          "blockHash": "0x7102c165ac1371fb4ba50c408362d5200bc979f3de5d72b29bec142635bef7eb",
          "blockNumber": "0x1b2042e",
          "blockTimestamp": "0x683ae408",
          "transactionHash": "0xac4effa1739a96614553043229bf138438f9295ae393850bf78563b14a00ffbc",
          "transactionIndex": "0x39",
          "logIndex": "0x3",
          "removed": false
        }
      ],
      "logsBloom": "0x00000000000000000000000000200000000000000000000000020000000000000000000000000000000000000000000100000000000000000000000000000000000008000000000000000008004000000000000000000000000080000000000000000000000000000000000000000000000000000000000000000010000000000000000000000000000000000010000000040000000000000000800000001000000000000000000000000000000000000000000040000001000000000000000000000002000000000004000000000000000800100000000000000000000000000000000002000000200000000002000000000000000000000000000000000000",
      "type": "0x2",
      "transactionHash": "0xac4effa1739a96614553043229bf138438f9295ae393850bf78563b14a00ffbc",
      "transactionIndex": "0x39",
      "blockHash": "0x7102c165ac1371fb4ba50c408362d5200bc979f3de5d72b29bec142635bef7eb",
      "blockNumber": "0x1b2042e",
      "gasUsed": "0x22566",
      "effectiveGasPrice": "0xa6e",
      "from": "0x0000007eabfc2e6a6b33b21d2f73d58941bab574",
      "to": "0xd570bf4598d3ccf214e288dd92222b8bd3134984",
      "contractAddress": null,
      "l1BaseFeeScalar": "0x1db0",
      "l1BlobBaseFee": "0x1",
      "l1BlobBaseFeeScalar": "0xd2730",
      "l1Fee": "0x33c4",
      "l1GasPrice": "0x424",
      "l1GasUsed": "0x662"
    },
    {
      "status": "0x1",
      "cumulativeGasUsed": "0x264d7d",
      "logs": [
        {
          "address": "0xdb3d3638345dfe3b27103f2e525862e446bffdef",
          "topics": [
            "0x8c5be1e5ebec7d5bd14f71427d1e84f3dd0314c0f7b2291e5b200ac8c7c3b925",
            "0x0000000000000000000000000000007eabfc2e6a6b33b21d2f73d58941bab574",
            "0x000000000000000000000000d570bf4598d3ccf214e288dd92222b8bd3134984"
          ],
          "data": "0x00000000000000000000000000000000000000000000d3c21bcecceda1000000",
          "blockHash": "0x7102c165ac1371fb4ba50c408362d5200bc979f3de5d72b29bec142635bef7eb",
          "blockNumber": "0x1b2042e",
          "transactionHash": "0xb9f8e3fca74f5eedf35e0bb85baea520a3091e7c7c9230a6836a989781804284",
          "transactionIndex": "0x3a",
          "logIndex": "0x4",
          "removed": false
        }
      ],
      "logsBloom": "0x00000000000000000000000000200000000000000000000000020000000000000000000000000000000000000000000000000000000000000000000000200000000008000000000000000000000000000000000000000000000080000000000000000000000000000000000000000000000000000000000000000000000000000000000000000000000000000000000000040000000000000000800000000000020000000000000000000000000000000000000000000001000000000000000000000000000000000000000000000000000000000000000000000000000000000010000002000000200000000000000000000000000000000000000000000000",
      "type": "0x2",
      "transactionHash": "0xb9f8e3fca74f5eedf35e0bb85baea520a3091e7c7c9230a6836a989781804284",
      "transactionIndex": "0x3a",
      "blockHash": "0x7102c165ac1371fb4ba50c408362d5200bc979f3de5d72b29bec142635bef7eb",
      "blockNumber": "0x1b2042e",
      "gasUsed": "0xb75c",
      "effectiveGasPrice": "0xa6e",
      "from": "0x0000007eabfc2e6a6b33b21d2f73d58941bab574",
      "to": "0xdb3d3638345dfe3b27103f2e525862e446bffdef",
      "contractAddress": null,
      "l1BaseFeeScalar": "0x1db0",
      "l1BlobBaseFee": "0x1",
      "l1BlobBaseFeeScalar": "0xd2730",
      "l1Fee": "0x32af",
      "l1GasPrice": "0x424",
      "l1GasUsed": "0x640"
    },
    {
      "status": "0x1",
      "cumulativeGasUsed": "0x27a8fc",
      "logs": [
        {
          "address": "0xdb3d3638345dfe3b27103f2e525862e446bffdef",
          "topics": [
            "0xddf252ad1be2c89b69c2b068fc378daa952ba7f163c4a11628f55a4df523b3ef",
            "0x0000000000000000000000000000007eabfc2e6a6b33b21d2f73d58941bab574",
            "0x000000000000000000000000d570bf4598d3ccf214e288dd92222b8bd3134984"
          ],
          "data": "0x00000000000000000000000000000000000000000000d3c21bcecceda1000000",
          "blockHash": "0x7102c165ac1371fb4ba50c408362d5200bc979f3de5d72b29bec142635bef7eb",
          "blockNumber": "0x1b2042e",
          "blockTimestamp": "0x683ae408",
          "transactionHash": "0xe4f8befbba60f56b27478b02bdf64024cde68acaaeace3615eca08e11b0df599",
          "transactionIndex": "0x3b",
          "logIndex": "0x5",
          "removed": false
        },
        {
          "address": "0xd570bf4598d3ccf214e288dd92222b8bd3134984",
          "topics": [
            "0x671f6af1a2244f88c1a5e6c6310f86653d313027950723ffc12387348a9ed8b3",
            "0x000000000000000000000000db3d3638345dfe3b27103f2e525862e446bffdef",
            "0x0000000000000000000000000000007eabfc2e6a6b33b21d2f73d58941bab574"
          ],
          "data": "0x00000000000000000000000000000000000000000000000000636c45c6f31dfc00000000000000000000000000000000000000000000d3c21bcecceda1000000000000000000000000000000000000000000000000000000000000000000000000000000000000000000000000000000000000000000000000000000683ae408000000000000000000000000000000000000000000000001a055690d9db800010000000000000000000000000000000000000000037790a0e8714009b49c0000",
          "blockHash": "0x7102c165ac1371fb4ba50c408362d5200bc979f3de5d72b29bec142635bef7eb",
          "blockNumber": "0x1b2042e",
          "blockTimestamp": "0x683ae408",
          "transactionHash": "0xe4f8befbba60f56b27478b02bdf64024cde68acaaeace3615eca08e11b0df599",
          "transactionIndex": "0x3b",
          "logIndex": "0x6",
          "removed": false
        }
      ],
      "logsBloom": "0x00000000000000000000000000200000000000000000000000020000000000000000000000000000000000000000000100000000000000000000000000000000000008000000000000000008004000000000000000000000000080000000000000000000000000000000000000000000000000000000000000000010000000000000000000000000000000000010000000040000000000000000800000001000000000000000000000000000000000000000000040000001000000000000000000000002000000000004000000000000000800100000000000000000000000000000000002000000200000000002000000000000000000000000000000000000",
      "type": "0x2",
      "transactionHash": "0xe4f8befbba60f56b27478b02bdf64024cde68acaaeace3615eca08e11b0df599",
      "transactionIndex": "0x3b",
      "blockHash": "0x7102c165ac1371fb4ba50c408362d5200bc979f3de5d72b29bec142635bef7eb",
      "blockNumber": "0x1b2042e",
      "gasUsed": "0x15b7f",
      "effectiveGasPrice": "0xa6e",
      "from": "0x0000007eabfc2e6a6b33b21d2f73d58941bab574",
      "to": "0xd570bf4598d3ccf214e288dd92222b8bd3134984",
      "contractAddress": null,
      "l1BaseFeeScalar": "0x1db0",
      "l1BlobBaseFee": "0x1",
      "l1BlobBaseFeeScalar": "0xd2730",
      "l1Fee": "0x32af",
      "l1GasPrice": "0x424",
      "l1GasUsed": "0x640"
    },
    {
      "status": "0x1",
      "cumulativeGasUsed": "0x29ce56",
      "logs": [
        {
          "address": "0x1096de00cf081c2178455fa8873cc08a806c5406",
          "topics": [
            "0xddf252ad1be2c89b69c2b068fc378daa952ba7f163c4a11628f55a4df523b3ef",
            "0x000000000000000000000000d570bf4598d3ccf214e288dd92222b8bd3134984",
            "0x0000000000000000000000000000007eabfc2e6a6b33b21d2f73d58941bab574"
          ],
          "data": "0x00000000000000000000000000000000000000000000d3c21bcecceda1000000",
          "blockHash": "0x7102c165ac1371fb4ba50c408362d5200bc979f3de5d72b29bec142635bef7eb",
          "blockNumber": "0x1b2042e",
          "blockTimestamp": "0x683ae408",
          "transactionHash": "0xb8578b0554b2ea897229da49b6def6bafa7596a0ac6a5339394c5f0beb0690f1",
          "transactionIndex": "0x3c",
          "logIndex": "0x7",
          "removed": false
        },
        {
          "address": "0xd570bf4598d3ccf214e288dd92222b8bd3134984",
          "topics": [
            "0x671f6af1a2244f88c1a5e6c6310f86653d313027950723ffc12387348a9ed8b3",
            "0x0000000000000000000000001096de00cf081c2178455fa8873cc08a806c5406",
            "0x0000000000000000000000000000007eabfc2e6a6b33b21d2f73d58941bab574"
          ],
          "data": "0x00000000000000000000000000000000000000000000000000636c45c6f31dfd00000000000000000000000000000000000000000000d3c21bcecceda1000000000000000000000000000000000000000000000000000000000000000000000100000000000000000000000000000000000000000000000000000000683ae408000000000000000000000000000000000000000000000001a0b8d55364ab1dfd00000000000000000000000000000000000000000376bcdecca2731c139c0000",
          "blockHash": "0x7102c165ac1371fb4ba50c408362d5200bc979f3de5d72b29bec142635bef7eb",
          "blockNumber": "0x1b2042e",
          "blockTimestamp": "0x683ae408",
          "transactionHash": "0xb8578b0554b2ea897229da49b6def6bafa7596a0ac6a5339394c5f0beb0690f1",
          "transactionIndex": "0x3c",
          "logIndex": "0x8",
          "removed": false
        }
      ],
      "logsBloom": "0x00000000000000000000000000200000000000000000000000020000000000000000000000000000000000000000000100000000000000000000000000000000000008000000000000000008004000000000000000000000000000000000000000000000000000000000000000000000000000400000000000000010000000000000010000000000000000000010000000040000000000000000800000000000000000000004000000000000000000002000000000000001000000000000000000000002000000004004000000000000000000100000000000000000000000000000000000000000001000000002000000000000000000000000000000000000",
      "type": "0x2",
      "transactionHash": "0xb8578b0554b2ea897229da49b6def6bafa7596a0ac6a5339394c5f0beb0690f1",
      "transactionIndex": "0x3c",
      "blockHash": "0x7102c165ac1371fb4ba50c408362d5200bc979f3de5d72b29bec142635bef7eb",
      "blockNumber": "0x1b2042e",
      "gasUsed": "0x2255a",
      "effectiveGasPrice": "0xa6e",
      "from": "0x0000007eabfc2e6a6b33b21d2f73d58941bab574",
      "to": "0xd570bf4598d3ccf214e288dd92222b8bd3134984",
      "contractAddress": null,
      "l1BaseFeeScalar": "0x1db0",
      "l1BlobBaseFee": "0x1",
      "l1BlobBaseFeeScalar": "0xd2730",
      "l1Fee": "0x33c4",
      "l1GasPrice": "0x424",
      "l1GasUsed": "0x662"
    },
    {
      "status": "0x1",
      "cumulativeGasUsed": "0x2a85b2",
      "logs": [
        {
          "address": "0x1096de00cf081c2178455fa8873cc08a806c5406",
          "topics": [
            "0x8c5be1e5ebec7d5bd14f71427d1e84f3dd0314c0f7b2291e5b200ac8c7c3b925",
            "0x0000000000000000000000000000007eabfc2e6a6b33b21d2f73d58941bab574",
            "0x000000000000000000000000d570bf4598d3ccf214e288dd92222b8bd3134984"
          ],
          "data": "0x00000000000000000000000000000000000000000000d3c21bcecceda1000000",
          "blockHash": "0x7102c165ac1371fb4ba50c408362d5200bc979f3de5d72b29bec142635bef7eb",
          "blockNumber": "0x1b2042e",
          "blockTimestamp": "0x683ae408",
          "transactionHash": "0x2726da0802b34f856b2afdad393a3f3ada9dcade8fa9718611775568af2dc714",
          "transactionIndex": "0x3d",
          "logIndex": "0x9",
          "removed": false
        }
      ],
      "logsBloom": "0x00000000000000000000000000200000000000000000000000020000000000000000000000000000000000000000000000000000000000000000000000200000000008000000000000000000000000000000000000000000000000000000000000000000000000000000000000000000000000400000000000000000000000000000000000000000000000000000000000040000000000000000800000000000020000000000000000000000000000002000000000000001000000000000000000000000000000000000000000000000000000000000000000000000000000000010000000000000001000000000000000000000000000000000000000000000",
      "type": "0x2",
      "transactionHash": "0x2726da0802b34f856b2afdad393a3f3ada9dcade8fa9718611775568af2dc714",
      "transactionIndex": "0x3d",
      "blockHash": "0x7102c165ac1371fb4ba50c408362d5200bc979f3de5d72b29bec142635bef7eb",
      "blockNumber": "0x1b2042e",
      "gasUsed": "0xb75c",
      "effectiveGasPrice": "0xa6e",
      "from": "0x0000007eabfc2e6a6b33b21d2f73d58941bab574",
      "to": "0x1096de00cf081c2178455fa8873cc08a806c5406",
      "contractAddress": null,
      "l1BaseFeeScalar": "0x1db0",
      "l1BlobBaseFee": "0x1",
      "l1BlobBaseFeeScalar": "0xd2730",
      "l1Fee": "0x32af",
      "l1GasPrice": "0x424",
      "l1GasUsed": "0x640"
    },
    {
      "status": "0x1",
      "cumulativeGasUsed": "0x2be125",
      "logs": [
        {
          "address": "0x1096de00cf081c2178455fa8873cc08a806c5406",
          "topics": [
            "0xddf252ad1be2c89b69c2b068fc378daa952ba7f163c4a11628f55a4df523b3ef",
            "0x0000000000000000000000000000007eabfc2e6a6b33b21d2f73d58941bab574",
            "0x000000000000000000000000d570bf4598d3ccf214e288dd92222b8bd3134984"
          ],
          "data": "0x00000000000000000000000000000000000000000000d3c21bcecceda1000000",
          "blockHash": "0x7102c165ac1371fb4ba50c408362d5200bc979f3de5d72b29bec142635bef7eb",
          "blockNumber": "0x1b2042e",
          "transactionHash": "0x3c9dc94fa3901bd620b4002286c88c14d9153f3eb43697be55c1cfcf33f35087",
          "transactionIndex": "0x3e",
          "logIndex": "0xa",
          "removed": false
        },
        {
          "address": "0xd570bf4598d3ccf214e288dd92222b8bd3134984",
          "topics": [
            "0x671f6af1a2244f88c1a5e6c6310f86653d313027950723ffc12387348a9ed8b3",
            "0x0000000000000000000000001096de00cf081c2178455fa8873cc08a806c5406",
            "0x0000000000000000000000000000007eabfc2e6a6b33b21d2f73d58941bab574"
          ],
          "data": "0x00000000000000000000000000000000000000000000000000636c45c6f31dfc00000000000000000000000000000000000000000000d3c21bcecceda1000000000000000000000000000000000000000000000000000000000000000000000000000000000000000000000000000000000000000000000000000000683ae408000000000000000000000000000000000000000000000001a055690d9db800010000000000000000000000000000000000000000037790a0e8714009b49c0000",
          "blockHash": "0x7102c165ac1371fb4ba50c408362d5200bc979f3de5d72b29bec142635bef7eb",
          "blockNumber": "0x1b2042e",
          "transactionHash": "0x3c9dc94fa3901bd620b4002286c88c14d9153f3eb43697be55c1cfcf33f35087",
          "transactionIndex": "0x3e",
          "logIndex": "0xb",
          "removed": false
        }
      ],
      "logsBloom": "0x00000000000000000000000000200000000000000000000000020000000000000000000000000000000000000000000100000000000000000000000000000000000008000000000000000008004000000000000000000000000000000000000000000000000000000000000000000000000000400000000000000010000000000000010000000000000000000010000000040000000000000000800000000000000000000004000000000000000000002000000000000001000000000000000000000002000000004004000000000000000000100000000000000000000000000000000000000000001000000002000000000000000000000000000000000000",
      "type": "0x2",
      "transactionHash": "0x3c9dc94fa3901bd620b4002286c88c14d9153f3eb43697be55c1cfcf33f35087",
      "transactionIndex": "0x3e",
      "blockHash": "0x7102c165ac1371fb4ba50c408362d5200bc979f3de5d72b29bec142635bef7eb",
      "blockNumber": "0x1b2042e",
      "gasUsed": "0x15b73",
      "effectiveGasPrice": "0xa6e",
      "from": "0x0000007eabfc2e6a6b33b21d2f73d58941bab574",
      "to": "0xd570bf4598d3ccf214e288dd92222b8bd3134984",
      "contractAddress": null,
      "l1BaseFeeScalar": "0x1db0",
      "l1BlobBaseFee": "0x1",
      "l1BlobBaseFeeScalar": "0xd2730",
      "l1Fee": "0x32af",
      "l1GasPrice": "0x424",
      "l1GasUsed": "0x640"
    },
    {
      "status": "0x1",
      "cumulativeGasUsed": "0x2e068b",
      "logs": [
        {
          "address": "0x6f77088f74b8e6f491e7e381fb211d831b50ea59",
          "topics": [
            "0xddf252ad1be2c89b69c2b068fc378daa952ba7f163c4a11628f55a4df523b3ef",
            "0x000000000000000000000000d570bf4598d3ccf214e288dd92222b8bd3134984",
            "0x0000000000000000000000000000007eabfc2e6a6b33b21d2f73d58941bab574"
          ],
          "data": "0x00000000000000000000000000000000000000000000d3c21bcecceda1000000",
          "blockHash": "0x7102c165ac1371fb4ba50c408362d5200bc979f3de5d72b29bec142635bef7eb",
          "blockNumber": "0x1b2042e",
          "blockTimestamp": "0x683ae408",
          "transactionHash": "0xa48affcdcf9fc21211bb3f849ac19137f599d32566e441079e12d290d6030a3c",
          "transactionIndex": "0x3f",
          "logIndex": "0xc",
          "removed": false
        },
        {
          "address": "0xd570bf4598d3ccf214e288dd92222b8bd3134984",
          "topics": [
            "0x671f6af1a2244f88c1a5e6c6310f86653d313027950723ffc12387348a9ed8b3",
            "0x0000000000000000000000006f77088f74b8e6f491e7e381fb211d831b50ea59",
            "0x0000000000000000000000000000007eabfc2e6a6b33b21d2f73d58941bab574"
          ],
          "data": "0x00000000000000000000000000000000000000000000000000636c45c6f31dfd00000000000000000000000000000000000000000000d3c21bcecceda1000000000000000000000000000000000000000000000000000000000000000000000100000000000000000000000000000000000000000000000000000000683ae408000000000000000000000000000000000000000000000001a0b8d55364ab1dfd00000000000000000000000000000000000000000376bcdecca2731c139c0000",
          "blockHash": "0x7102c165ac1371fb4ba50c408362d5200bc979f3de5d72b29bec142635bef7eb",
          "blockNumber": "0x1b2042e",
          "blockTimestamp": "0x683ae408",
          "transactionHash": "0xa48affcdcf9fc21211bb3f849ac19137f599d32566e441079e12d290d6030a3c",
          "transactionIndex": "0x3f",
          "logIndex": "0xd",
          "removed": false
        }
      ],
      "logsBloom": "0x00000002000000000000000000200000000000000000000000020000400000000002000000000000000000000000000100000000000000000000000000000000000008000000000000000008004000000000000000000000000000000000000000000000000000000000000000000000000000000000000000000011000000000000000000000000000000000010000000040000000000000000800000000000000000000000000000000000000000000000000000000001000000000000000000000002000000000004000000000000000000100000000000000000000000800000000000000000000000000002000004000000000000000000000000000000",
      "type": "0x2",
      "transactionHash": "0xa48affcdcf9fc21211bb3f849ac19137f599d32566e441079e12d290d6030a3c",
      "transactionIndex": "0x3f",
      "blockHash": "0x7102c165ac1371fb4ba50c408362d5200bc979f3de5d72b29bec142635bef7eb",
      "blockNumber": "0x1b2042e",
      "gasUsed": "0x22566",
      "effectiveGasPrice": "0xa6e",
      "from": "0x0000007eabfc2e6a6b33b21d2f73d58941bab574",
      "to": "0xd570bf4598d3ccf214e288dd92222b8bd3134984",
      "contractAddress": null,
      "l1BaseFeeScalar": "0x1db0",
      "l1BlobBaseFee": "0x1",
      "l1BlobBaseFeeScalar": "0xd2730",
      "l1Fee": "0x33c4",
      "l1GasPrice": "0x424",
      "l1GasUsed": "0x662"
    },
    {
      "status": "0x1",
      "cumulativeGasUsed": "0x2ebde7",
      "logs": [
        {
          "address": "0x6f77088f74b8e6f491e7e381fb211d831b50ea59",
          "topics": [
            "0x8c5be1e5ebec7d5bd14f71427d1e84f3dd0314c0f7b2291e5b200ac8c7c3b925",
            "0x0000000000000000000000000000007eabfc2e6a6b33b21d2f73d58941bab574",
            "0x000000000000000000000000d570bf4598d3ccf214e288dd92222b8bd3134984"
          ],
          "data": "0x00000000000000000000000000000000000000000000d3c21bcecceda1000000",
          "blockHash": "0x7102c165ac1371fb4ba50c408362d5200bc979f3de5d72b29bec142635bef7eb",
          "blockNumber": "0x1b2042e",
          "blockTimestamp": "0x683ae408",
          "transactionHash": "0xd4a498e6f82b476235127c99c3af5185f656d9fdd19b78cd64309630e8f57c55",
          "transactionIndex": "0x40",
          "logIndex": "0xe",
          "removed": false
        }
      ],
      "logsBloom": "0x00000002000000000000000000200000000000000000000000020000000000000002000000000000000000000000000000000000000000000000000000200000000008000000000000000000000000000000000000000000000000000000000000000000000000000000000000000000000000000000000000000000000000000000000000000000000000000000000000040000000000000000800000000000020000000000000000000000000000000000000000000001000000000000000000000000000000000000000000000000000000000000000000000000000000000010000000000000000000000000000004000000000000000000000000000000",
      "type": "0x2",
      "transactionHash": "0xd4a498e6f82b476235127c99c3af5185f656d9fdd19b78cd64309630e8f57c55",
      "transactionIndex": "0x40",
      "blockHash": "0x7102c165ac1371fb4ba50c408362d5200bc979f3de5d72b29bec142635bef7eb",
      "blockNumber": "0x1b2042e",
      "gasUsed": "0xb75c",
      "effectiveGasPrice": "0xa6e",
      "from": "0x0000007eabfc2e6a6b33b21d2f73d58941bab574",
      "to": "0x6f77088f74b8e6f491e7e381fb211d831b50ea59",
      "contractAddress": null,
      "l1BaseFeeScalar": "0x1db0",
      "l1BlobBaseFee": "0x1",
      "l1BlobBaseFeeScalar": "0xd2730",
      "l1Fee": "0x32af",
      "l1GasPrice": "0x424",
      "l1GasUsed": "0x640"
    },
    {
      "status": "0x1",
      "cumulativeGasUsed": "0x301966",
      "logs": [
        {
          "address": "0x6f77088f74b8e6f491e7e381fb211d831b50ea59",
          "topics": [
            "0xddf252ad1be2c89b69c2b068fc378daa952ba7f163c4a11628f55a4df523b3ef",
            "0x0000000000000000000000000000007eabfc2e6a6b33b21d2f73d58941bab574",
            "0x000000000000000000000000d570bf4598d3ccf214e288dd92222b8bd3134984"
          ],
          "data": "0x00000000000000000000000000000000000000000000d3c21bcecceda1000000",
          "blockHash": "0x7102c165ac1371fb4ba50c408362d5200bc979f3de5d72b29bec142635bef7eb",
          "blockNumber": "0x1b2042e",
          "blockTimestamp": "0x683ae408",
          "transactionHash": "0xb050098f6e878abe4c98a13e1a5bb526c07d2d31f76dc318b25425ce2124df51",
          "transactionIndex": "0x41",
          "logIndex": "0xf",
          "removed": false
        },
        {
          "address": "0xd570bf4598d3ccf214e288dd92222b8bd3134984",
          "topics": [
            "0x671f6af1a2244f88c1a5e6c6310f86653d313027950723ffc12387348a9ed8b3",
            "0x0000000000000000000000006f77088f74b8e6f491e7e381fb211d831b50ea59",
            "0x0000000000000000000000000000007eabfc2e6a6b33b21d2f73d58941bab574"
          ],
          "data": "0x00000000000000000000000000000000000000000000000000636c45c6f31dfc00000000000000000000000000000000000000000000d3c21bcecceda1000000000000000000000000000000000000000000000000000000000000000000000000000000000000000000000000000000000000000000000000000000683ae408000000000000000000000000000000000000000000000001a055690d9db800010000000000000000000000000000000000000000037790a0e8714009b49c0000",
          "blockHash": "0x7102c165ac1371fb4ba50c408362d5200bc979f3de5d72b29bec142635bef7eb",
          "blockNumber": "0x1b2042e",
          "blockTimestamp": "0x683ae408",
          "transactionHash": "0xb050098f6e878abe4c98a13e1a5bb526c07d2d31f76dc318b25425ce2124df51",
          "transactionIndex": "0x41",
          "logIndex": "0x10",
          "removed": false
        }
      ],
      "logsBloom": "0x00000002000000000000000000200000000000000000000000020000400000000002000000000000000000000000000100000000000000000000000000000000000008000000000000000008004000000000000000000000000000000000000000000000000000000000000000000000000000000000000000000011000000000000000000000000000000000010000000040000000000000000800000000000000000000000000000000000000000000000000000000001000000000000000000000002000000000004000000000000000000100000000000000000000000800000000000000000000000000002000004000000000000000000000000000000",
      "type": "0x2",
      "transactionHash": "0xb050098f6e878abe4c98a13e1a5bb526c07d2d31f76dc318b25425ce2124df51",
      "transactionIndex": "0x41",
      "blockHash": "0x7102c165ac1371fb4ba50c408362d5200bc979f3de5d72b29bec142635bef7eb",
      "blockNumber": "0x1b2042e",
      "gasUsed": "0x15b7f",
      "effectiveGasPrice": "0xa6e",
      "from": "0x0000007eabfc2e6a6b33b21d2f73d58941bab574",
      "to": "0xd570bf4598d3ccf214e288dd92222b8bd3134984",
      "contractAddress": null,
      "l1BaseFeeScalar": "0x1db0",
      "l1BlobBaseFee": "0x1",
      "l1BlobBaseFeeScalar": "0xd2730",
      "l1Fee": "0x32af",
      "l1GasPrice": "0x424",
      "l1GasUsed": "0x640"
    }
  ],
  "libraries": [],
  "pending": [],
  "returns": {},
  "timestamp": 1748689929,
  "chain": 11155420,
  "commit": "f29afdd"
}