{
  "transactions": [
    {
      "hash": "0x0b2d48559b431df4d0e68327c0ed39e7eb6229bd0ca353c8e68a4088c760667d",
      "transactionType": "CALL",
      "contractName": "PumpFun",
      "contractAddress": "0xd570bf4598d3ccf214e288dd92222b8bd3134984",
      "function": "buy(address,uint256,uint256)",
      "arguments": [
        "0x50F2507fb2A0eA0883135bb0613BFF40DeBEdB2b",
        "1000000000000000000000000",
        "50000000000000000"
      ],
      "transaction": {
        "from": "0x0000007eabfc2e6a6b33b21d2f73d58941bab574",
        "to": "0xd570bf4598d3ccf214e288dd92222b8bd3134984",
        "gas": "0x2f6da",
        "value": "0xb1a2bc2ec50000",
        "input": "0xa59ac6dd00000000000000000000000050f2507fb2a0ea0883135bb0613bff40debedb2b00000000000000000000000000000000000000000000d3c21bcecceda100000000000000000000000000000000000000000000000000000000b1a2bc2ec50000",
        "nonce": "0x16",
        "chainId": "0xaa37dc"
      },
      "additionalContracts": [],
      "isFixedGasLimit": false
    },
    {
      "hash": "0x7d55f62ba203aa48714a1f0f340a5e201c5b618ceebcea07c6ca24abb2eb72a1",
      "transactionType": "CALL",
      "contractName": null,
      "contractAddress": "0x50f2507fb2a0ea0883135bb0613bff40debedb2b",
      "function": "approve(address,uint256)",
      "arguments": [
        "0xD570bF4598D3ccF214E288dd92222b8Bd3134984",
        "1000000000000000000000000"
      ],
      "transaction": {
        "from": "0x0000007eabfc2e6a6b33b21d2f73d58941bab574",
        "to": "0x50f2507fb2a0ea0883135bb0613bff40debedb2b",
        "gas": "0xfd42",
        "value": "0x0",
        "input": "0x095ea7b3000000000000000000000000d570bf4598d3ccf214e288dd92222b8bd313498400000000000000000000000000000000000000000000d3c21bcecceda1000000",
        "nonce": "0x17",
        "chainId": "0xaa37dc"
      },
      "additionalContracts": [],
      "isFixedGasLimit": false
    },
    {
      "hash": "0xca980427473bdb38f12da0a01ebe354d3403d5677e101b1e7d1b1b58876f0833",
      "transactionType": "CALL",
      "contractName": "PumpFun",
      "contractAddress": "0xd570bf4598d3ccf214e288dd92222b8bd3134984",
      "function": "sell(address,uint256,uint256)",
      "arguments": [
        "0x50F2507fb2A0eA0883135bb0613BFF40DeBEdB2b",
        "1000000000000000000000000",
        "0"
      ],
      "transaction": {
        "from": "0x0000007eabfc2e6a6b33b21d2f73d58941bab574",
        "to": "0xd570bf4598d3ccf214e288dd92222b8bd3134984",
        "gas": "0x1dff9",
        "value": "0x0",
        "input": "0x6a27246200000000000000000000000050f2507fb2a0ea0883135bb0613bff40debedb2b00000000000000000000000000000000000000000000d3c21bcecceda10000000000000000000000000000000000000000000000000000000000000000000000",
        "nonce": "0x18",
        "chainId": "0xaa37dc"
      },
      "additionalContracts": [],
      "isFixedGasLimit": false
    },
    {
      "hash": "0xabf90bd170bada39e20d02f1df8cecc4f7586aba1b44cd67e60d853cf742b37a",
      "transactionType": "CALL",
      "contractName": "PumpFun",
      "contractAddress": "0xd570bf4598d3ccf214e288dd92222b8bd3134984",
      "function": "buy(address,uint256,uint256)",
      "arguments": [
        "0xb3b77d5d8b4581fb3c1CB10D37e3456a8FF049A6",
        "1000000000000000000000000",
        "50000000000000000"
      ],
      "transaction": {
        "from": "0x0000007eabfc2e6a6b33b21d2f73d58941bab574",
        "to": "0xd570bf4598d3ccf214e288dd92222b8bd3134984",
        "gas": "0x2f6da",
        "value": "0xb1a2bc2ec50000",
        "input": "0xa59ac6dd000000000000000000000000b3b77d5d8b4581fb3c1cb10d37e3456a8ff049a600000000000000000000000000000000000000000000d3c21bcecceda100000000000000000000000000000000000000000000000000000000b1a2bc2ec50000",
        "nonce": "0x19",
        "chainId": "0xaa37dc"
      },
      "additionalContracts": [],
      "isFixedGasLimit": false
    },
    {
      "hash": "0xd8fe93fa9f21945c43bfa89e1ba1841920dcf44cfbabfbaec4ac3687aca5f7b2",
      "transactionType": "CALL",
      "contractName": null,
      "contractAddress": "0xb3b77d5d8b4581fb3c1cb10d37e3456a8ff049a6",
      "function": "approve(address,uint256)",
      "arguments": [
        "0xD570bF4598D3ccF214E288dd92222b8Bd3134984",
        "1000000000000000000000000"
      ],
      "transaction": {
        "from": "0x0000007eabfc2e6a6b33b21d2f73d58941bab574",
        "to": "0xb3b77d5d8b4581fb3c1cb10d37e3456a8ff049a6",
        "gas": "0xfd42",
        "value": "0x0",
        "input": "0x095ea7b3000000000000000000000000d570bf4598d3ccf214e288dd92222b8bd313498400000000000000000000000000000000000000000000d3c21bcecceda1000000",
        "nonce": "0x1a",
        "chainId": "0xaa37dc"
      },
      "additionalContracts": [],
      "isFixedGasLimit": false
    },
    {
      "hash": "0x88dc7f1ec5b4be69a91644942c01497bc8f9ca5cf18148ce35c6d1d8b07478c1",
      "transactionType": "CALL",
      "contractName": "PumpFun",
      "contractAddress": "0xd570bf4598d3ccf214e288dd92222b8bd3134984",
      "function": "sell(address,uint256,uint256)",
      "arguments": [
        "0xb3b77d5d8b4581fb3c1CB10D37e3456a8FF049A6",
        "1000000000000000000000000",
        "0"
      ],
      "transaction": {
        "from": "0x0000007eabfc2e6a6b33b21d2f73d58941bab574",
        "to": "0xd570bf4598d3ccf214e288dd92222b8bd3134984",
        "gas": "0x1dff9",
        "value": "0x0",
        "input": "0x6a272462000000000000000000000000b3b77d5d8b4581fb3c1cb10d37e3456a8ff049a600000000000000000000000000000000000000000000d3c21bcecceda10000000000000000000000000000000000000000000000000000000000000000000000",
        "nonce": "0x1b",
        "chainId": "0xaa37dc"
      },
      "additionalContracts": [],
      "isFixedGasLimit": false
    },
    {
      "hash": "0xb9bf710df16fce462eb7be678f02706eb33540a5a852ac57bbb228cfb3b9e9a3",
      "transactionType": "CALL",
      "contractName": "PumpFun",
      "contractAddress": "0xd570bf4598d3ccf214e288dd92222b8bd3134984",
      "function": "buy(address,uint256,uint256)",
      "arguments": [
        "0xFbb9bfFaa920162d70ab6a28Ea37DD8a390f4BFA",
        "1000000000000000000000000",
        "50000000000000000"
      ],
      "transaction": {
        "from": "0x0000007eabfc2e6a6b33b21d2f73d58941bab574",
        "to": "0xd570bf4598d3ccf214e288dd92222b8bd3134984",
        "gas": "0x2f6da",
        "value": "0xb1a2bc2ec50000",
        "input": "0xa59ac6dd000000000000000000000000fbb9bffaa920162d70ab6a28ea37dd8a390f4bfa00000000000000000000000000000000000000000000d3c21bcecceda100000000000000000000000000000000000000000000000000000000b1a2bc2ec50000",
        "nonce": "0x1c",
        "chainId": "0xaa37dc"
      },
      "additionalContracts": [],
      "isFixedGasLimit": false
    },
    {
      "hash": "0x1ed382703c053b285fdcf8635d11ae63e32f184d6e187d823294a6b37a96164c",
      "transactionType": "CALL",
      "contractName": null,
      "contractAddress": "0xfbb9bffaa920162d70ab6a28ea37dd8a390f4bfa",
      "function": "approve(address,uint256)",
      "arguments": [
        "0xD570bF4598D3ccF214E288dd92222b8Bd3134984",
        "1000000000000000000000000"
      ],
      "transaction": {
        "from": "0x0000007eabfc2e6a6b33b21d2f73d58941bab574",
        "to": "0xfbb9bffaa920162d70ab6a28ea37dd8a390f4bfa",
        "gas": "0xfd42",
        "value": "0x0",
        "input": "0x095ea7b3000000000000000000000000d570bf4598d3ccf214e288dd92222b8bd313498400000000000000000000000000000000000000000000d3c21bcecceda1000000",
        "nonce": "0x1d",
        "chainId": "0xaa37dc"
      },
      "additionalContracts": [],
      "isFixedGasLimit": false
    },
    {
      "hash": "0x2d03d4c7fa9c56986df07c4884aff69447b041bf94267b84f456e1e352bcd852",
      "transactionType": "CALL",
      "contractName": "PumpFun",
      "contractAddress": "0xd570bf4598d3ccf214e288dd92222b8bd3134984",
      "function": "sell(address,uint256,uint256)",
      "arguments": [
        "0xFbb9bfFaa920162d70ab6a28Ea37DD8a390f4BFA",
        "1000000000000000000000000",
        "0"
      ],
      "transaction": {
        "from": "0x0000007eabfc2e6a6b33b21d2f73d58941bab574",
        "to": "0xd570bf4598d3ccf214e288dd92222b8bd3134984",
        "gas": "0x1dff9",
        "value": "0x0",
        "input": "0x6a272462000000000000000000000000fbb9bffaa920162d70ab6a28ea37dd8a390f4bfa00000000000000000000000000000000000000000000d3c21bcecceda10000000000000000000000000000000000000000000000000000000000000000000000",
        "nonce": "0x1e",
        "chainId": "0xaa37dc"
      },
      "additionalContracts": [],
      "isFixedGasLimit": false
    }
  ],
  "receipts": [
    {
      "status": "0x1",
      "cumulativeGasUsed": "0x237f5e",
      "logs": [
        {
          "address": "0x50f2507fb2a0ea0883135bb0613bff40debedb2b",
          "topics": [
            "0xddf252ad1be2c89b69c2b068fc378daa952ba7f163c4a11628f55a4df523b3ef",
            "0x000000000000000000000000d570bf4598d3ccf214e288dd92222b8bd3134984",
            "0x0000000000000000000000000000007eabfc2e6a6b33b21d2f73d58941bab574"
          ],
          "data": "0x00000000000000000000000000000000000000000000d3c21bcecceda1000000",
          "blockHash": "0x6c560a62637cea5f9f2dcf4e2d04ffb32c05fd21dce49dd046441ba68480f2ac",
          "blockNumber": "0x1b20821",
          "blockTimestamp": "0x683aebee",
          "transactionHash": "0x0b2d48559b431df4d0e68327c0ed39e7eb6229bd0ca353c8e68a4088c760667d",
          "transactionIndex": "0x34",
          "logIndex": "0x0",
          "removed": false
        },
        {
          "address": "0xd570bf4598d3ccf214e288dd92222b8bd3134984",
          "topics": [
            "0x671f6af1a2244f88c1a5e6c6310f86653d313027950723ffc12387348a9ed8b3",
            "0x00000000000000000000000050f2507fb2a0ea0883135bb0613bff40debedb2b",
            "0x0000000000000000000000000000007eabfc2e6a6b33b21d2f73d58941bab574"
          ],
          "data": "0x00000000000000000000000000000000000000000000000000636c45c6f31dfd00000000000000000000000000000000000000000000d3c21bcecceda1000000000000000000000000000000000000000000000000000000000000000000000100000000000000000000000000000000000000000000000000000000683aebee000000000000000000000000000000000000000000000001a0b8d55364ab1dfd00000000000000000000000000000000000000000376bcdecca2731c139c0000",
          "blockHash": "0x6c560a62637cea5f9f2dcf4e2d04ffb32c05fd21dce49dd046441ba68480f2ac",
          "blockNumber": "0x1b20821",
          "blockTimestamp": "0x683aebee",
          "transactionHash": "0x0b2d48559b431df4d0e68327c0ed39e7eb6229bd0ca353c8e68a4088c760667d",
          "transactionIndex": "0x34",
          "logIndex": "0x1",
          "removed": false
        }
      ],
      "logsBloom": "0x00000000000000000000000000200000000000000000000000020000000004000000000000000000000000000000000101000000000000800000000000000000000008000000000000000008004000000000000000000000000000000000000000000000000000000000000000000000000000000000000000000010000000200000000000000000000000000010000000040000000000000000800000000000000000000000000000000000000000000000000000000001000000000000000000000002000000000004000000080000000000100000000000000000000000000000000000000000000000000002000000000000000000000000000000000000",
      "type": "0x2",
      "transactionHash": "0x0b2d48559b431df4d0e68327c0ed39e7eb6229bd0ca353c8e68a4088c760667d",
      "transactionIndex": "0x34",
      "blockHash": "0x6c560a62637cea5f9f2dcf4e2d04ffb32c05fd21dce49dd046441ba68480f2ac",
      "blockNumber": "0x1b20821",
      "gasUsed": "0x22566",
      "effectiveGasPrice": "0xf4362",
      "from": "0x0000007eabfc2e6a6b33b21d2f73d58941bab574",
      "to": "0xd570bf4598d3ccf214e288dd92222b8bd3134984",
      "contractAddress": null,
      "l1BaseFeeScalar": "0x1db0",
      "l1BlobBaseFee": "0x1",
      "l1BlobBaseFeeScalar": "0xd2730",
      "l1Fee": "0x235b",
      "l1GasPrice": "0x2c6",
      "l1GasUsed": "0x67c"
    },
    {
      "status": "0x1",
      "cumulativeGasUsed": "0x2436ba",
      "logs": [
        {
          "address": "0x50f2507fb2a0ea0883135bb0613bff40debedb2b",
          "topics": [
            "0x8c5be1e5ebec7d5bd14f71427d1e84f3dd0314c0f7b2291e5b200ac8c7c3b925",
            "0x0000000000000000000000000000007eabfc2e6a6b33b21d2f73d58941bab574",
            "0x000000000000000000000000d570bf4598d3ccf214e288dd92222b8bd3134984"
          ],
          "data": "0x00000000000000000000000000000000000000000000d3c21bcecceda1000000",
          "blockHash": "0x6c560a62637cea5f9f2dcf4e2d04ffb32c05fd21dce49dd046441ba68480f2ac",
          "blockNumber": "0x1b20821",
          "blockTimestamp": "0x683aebee",
          "transactionHash": "0x7d55f62ba203aa48714a1f0f340a5e201c5b618ceebcea07c6ca24abb2eb72a1",
          "transactionIndex": "0x35",
          "logIndex": "0x2",
          "removed": false
        }
      ],
      "logsBloom": "0x00000000000000000000000000200000000000000000000000020000000004000000000000000000000000000000000100000000000000800000000000200000000008000000000000000000000000000000000000000000000000000000000000000000000000000000000000000000000000000000000000000000000000000000000000000000000000000000000000040000000000000000800000000000020000000000000000000000000000000000000000000001000000000000000000000000000000000000000000000000000000000000000000000000000000000010000000000000000000000000000000000000000000000000000000000000",
      "type": "0x2",
      "transactionHash": "0x7d55f62ba203aa48714a1f0f340a5e201c5b618ceebcea07c6ca24abb2eb72a1",
      "transactionIndex": "0x35",
      "blockHash": "0x6c560a62637cea5f9f2dcf4e2d04ffb32c05fd21dce49dd046441ba68480f2ac",
      "blockNumber": "0x1b20821",
      "gasUsed": "0xb75c",
      "effectiveGasPrice": "0xf4362",
      "from": "0x0000007eabfc2e6a6b33b21d2f73d58941bab574",
      "to": "0x50f2507fb2a0ea0883135bb0613bff40debedb2b",
      "contractAddress": null,
      "l1BaseFeeScalar": "0x1db0",
      "l1BlobBaseFee": "0x1",
      "l1BlobBaseFeeScalar": "0xd2730",
      "l1Fee": "0x220f",
      "l1GasPrice": "0x2c6",
      "l1GasUsed": "0x640"
    },
    {
      "status": "0x1",
      "cumulativeGasUsed": "0x259239",
      "logs": [
        {
          "address": "0x50f2507fb2a0ea0883135bb0613bff40debedb2b",
          "topics": [
            "0xddf252ad1be2c89b69c2b068fc378daa952ba7f163c4a11628f55a4df523b3ef",
            "0x0000000000000000000000000000007eabfc2e6a6b33b21d2f73d58941bab574",
            "0x000000000000000000000000d570bf4598d3ccf214e288dd92222b8bd3134984"
          ],
          "data": "0x00000000000000000000000000000000000000000000d3c21bcecceda1000000",
          "blockHash": "0x6c560a62637cea5f9f2dcf4e2d04ffb32c05fd21dce49dd046441ba68480f2ac",
          "blockNumber": "0x1b20821",
          "blockTimestamp": "0x683aebee",
          "transactionHash": "0xca980427473bdb38f12da0a01ebe354d3403d5677e101b1e7d1b1b58876f0833",
          "transactionIndex": "0x36",
          "logIndex": "0x3",
          "removed": false
        },
        {
          "address": "0xd570bf4598d3ccf214e288dd92222b8bd3134984",
          "topics": [
            "0x671f6af1a2244f88c1a5e6c6310f86653d313027950723ffc12387348a9ed8b3",
            "0x00000000000000000000000050f2507fb2a0ea0883135bb0613bff40debedb2b",
            "0x0000000000000000000000000000007eabfc2e6a6b33b21d2f73d58941bab574"
          ],
          "data": "0x00000000000000000000000000000000000000000000000000636c45c6f31dfc00000000000000000000000000000000000000000000d3c21bcecceda1000000000000000000000000000000000000000000000000000000000000000000000000000000000000000000000000000000000000000000000000000000683aebee000000000000000000000000000000000000000000000001a055690d9db800010000000000000000000000000000000000000000037790a0e8714009b49c0000",
          "blockHash": "0x6c560a62637cea5f9f2dcf4e2d04ffb32c05fd21dce49dd046441ba68480f2ac",
          "blockNumber": "0x1b20821",
          "blockTimestamp": "0x683aebee",
          "transactionHash": "0xca980427473bdb38f12da0a01ebe354d3403d5677e101b1e7d1b1b58876f0833",
          "transactionIndex": "0x36",
          "logIndex": "0x4",
          "removed": false
        }
      ],
      "logsBloom": "0x00000000000000000000000000200000000000000000000000020000000004000000000000000000000000000000000101000000000000800000000000000000000008000000000000000008004000000000000000000000000000000000000000000000000000000000000000000000000000000000000000000010000000200000000000000000000000000010000000040000000000000000800000000000000000000000000000000000000000000000000000000001000000000000000000000002000000000004000000080000000000100000000000000000000000000000000000000000000000000002000000000000000000000000000000000000",
      "type": "0x2",
      "transactionHash": "0xca980427473bdb38f12da0a01ebe354d3403d5677e101b1e7d1b1b58876f0833",
      "transactionIndex": "0x36",
      "blockHash": "0x6c560a62637cea5f9f2dcf4e2d04ffb32c05fd21dce49dd046441ba68480f2ac",
      "blockNumber": "0x1b20821",
      "gasUsed": "0x15b7f",
      "effectiveGasPrice": "0xf4362",
      "from": "0x0000007eabfc2e6a6b33b21d2f73d58941bab574",
      "to": "0xd570bf4598d3ccf214e288dd92222b8bd3134984",
      "contractAddress": null,
      "l1BaseFeeScalar": "0x1db0",
      "l1BlobBaseFee": "0x1",
      "l1BlobBaseFeeScalar": "0xd2730",
      "l1Fee": "0x220f",
      "l1GasPrice": "0x2c6",
      "l1GasUsed": "0x640"
    },
    {
      "status": "0x1",
      "cumulativeGasUsed": "0x27b79f",
      "logs": [
        {
          "address": "0xb3b77d5d8b4581fb3c1cb10d37e3456a8ff049a6",
          "topics": [
            "0xddf252ad1be2c89b69c2b068fc378daa952ba7f163c4a11628f55a4df523b3ef",
            "0x000000000000000000000000d570bf4598d3ccf214e288dd92222b8bd3134984",
            "0x0000000000000000000000000000007eabfc2e6a6b33b21d2f73d58941bab574"
          ],
          "data": "0x00000000000000000000000000000000000000000000d3c21bcecceda1000000",
          "blockHash": "0x6c560a62637cea5f9f2dcf4e2d04ffb32c05fd21dce49dd046441ba68480f2ac",
          "blockNumber": "0x1b20821",
          "blockTimestamp": "0x683aebee",
          "transactionHash": "0xabf90bd170bada39e20d02f1df8cecc4f7586aba1b44cd67e60d853cf742b37a",
          "transactionIndex": "0x37",
          "logIndex": "0x5",
          "removed": false
        },
        {
          "address": "0xd570bf4598d3ccf214e288dd92222b8bd3134984",
          "topics": [
            "0x671f6af1a2244f88c1a5e6c6310f86653d313027950723ffc12387348a9ed8b3",
            "0x000000000000000000000000b3b77d5d8b4581fb3c1cb10d37e3456a8ff049a6",
            "0x0000000000000000000000000000007eabfc2e6a6b33b21d2f73d58941bab574"
          ],
          "data": "0x00000000000000000000000000000000000000000000000000636c45c6f31dfd00000000000000000000000000000000000000000000d3c21bcecceda1000000000000000000000000000000000000000000000000000000000000000000000100000000000000000000000000000000000000000000000000000000683aebee000000000000000000000000000000000000000000000001a0b8d55364ab1dfd00000000000000000000000000000000000000000376bcdecca2731c139c0000",
          "blockHash": "0x6c560a62637cea5f9f2dcf4e2d04ffb32c05fd21dce49dd046441ba68480f2ac",
          "blockNumber": "0x1b20821",
          "blockTimestamp": "0x683aebee",
          "transactionHash": "0xabf90bd170bada39e20d02f1df8cecc4f7586aba1b44cd67e60d853cf742b37a",
          "transactionIndex": "0x37",
          "logIndex": "0x6",
          "removed": false
        }
      ],
      "logsBloom": "0x00000000000000000000000000200000000000000000000000020000004000000000000000000000000000000000000100000000000000000000000000000000000008000000000000000008004200000000000000000000800000000000000000000000000000000000000000000000000000000000000000000010000000000000000000000000000000000010000000040000000000004000800000000000000000000000000000000000000000000000000000000001000000000000000000000002000000000004000000000000000000100000000000000000000400000000000000000000000000000002000000000000000040000000000000000000",
      "type": "0x2",
      "transactionHash": "0xabf90bd170bada39e20d02f1df8cecc4f7586aba1b44cd67e60d853cf742b37a",
      "transactionIndex": "0x37",
      "blockHash": "0x6c560a62637cea5f9f2dcf4e2d04ffb32c05fd21dce49dd046441ba68480f2ac",
      "blockNumber": "0x1b20821",
      "gasUsed": "0x22566",
      "effectiveGasPrice": "0xf4362",
      "from": "0x0000007eabfc2e6a6b33b21d2f73d58941bab574",
      "to": "0xd570bf4598d3ccf214e288dd92222b8bd3134984",
      "contractAddress": null,
      "l1BaseFeeScalar": "0x1db0",
      "l1BlobBaseFee": "0x1",
      "l1BlobBaseFeeScalar": "0xd2730",
      "l1Fee": "0x235b",
      "l1GasPrice": "0x2c6",
      "l1GasUsed": "0x67c"
    },
    {
      "status": "0x1",
      "cumulativeGasUsed": "0x286efb",
      "logs": [
        {
          "address": "0xb3b77d5d8b4581fb3c1cb10d37e3456a8ff049a6",
          "topics": [
            "0x8c5be1e5ebec7d5bd14f71427d1e84f3dd0314c0f7b2291e5b200ac8c7c3b925",
            "0x0000000000000000000000000000007eabfc2e6a6b33b21d2f73d58941bab574",
            "0x000000000000000000000000d570bf4598d3ccf214e288dd92222b8bd3134984"
          ],
          "data": "0x00000000000000000000000000000000000000000000d3c21bcecceda1000000",
          "blockHash": "0x6c560a62637cea5f9f2dcf4e2d04ffb32c05fd21dce49dd046441ba68480f2ac",
          "blockNumber": "0x1b20821",
          "blockTimestamp": "0x683aebee",
          "transactionHash": "0xd8fe93fa9f21945c43bfa89e1ba1841920dcf44cfbabfbaec4ac3687aca5f7b2",
          "transactionIndex": "0x38",
          "logIndex": "0x7",
          "removed": false
        }
      ],
      "logsBloom": "0x00000000000000000000000000200000000000000000000000020000004000000000000000000000000000000000000000000000000000000000000000200000000008000000000000000000000000000000000000000000000000000000000000000000000000000000000000000000000000000000000000000000000000000000000000000000000000000000000000040000000000000000800000000000020000000000000000000000000000000000000000000001000000000000000000000000000000000000000000000000000000000000000000000000000400000010000000000000000000000000000000000000000040000000000000000000",
      "type": "0x2",
      "transactionHash": "0xd8fe93fa9f21945c43bfa89e1ba1841920dcf44cfbabfbaec4ac3687aca5f7b2",
      "transactionIndex": "0x38",
      "blockHash": "0x6c560a62637cea5f9f2dcf4e2d04ffb32c05fd21dce49dd046441ba68480f2ac",
      "blockNumber": "0x1b20821",
      "gasUsed": "0xb75c",
      "effectiveGasPrice": "0xf4362",
      "from": "0x0000007eabfc2e6a6b33b21d2f73d58941bab574",
      "to": "0xb3b77d5d8b4581fb3c1cb10d37e3456a8ff049a6",
      "contractAddress": null,
      "l1BaseFeeScalar": "0x1db0",
      "l1BlobBaseFee": "0x1",
      "l1BlobBaseFeeScalar": "0xd2730",
      "l1Fee": "0x220f",
      "l1GasPrice": "0x2c6",
      "l1GasUsed": "0x640"
    },
    {
      "status": "0x1",
      "cumulativeGasUsed": "0x29ca7a",
      "logs": [
        {
          "address": "0xb3b77d5d8b4581fb3c1cb10d37e3456a8ff049a6",
          "topics": [
            "0xddf252ad1be2c89b69c2b068fc378daa952ba7f163c4a11628f55a4df523b3ef",
            "0x0000000000000000000000000000007eabfc2e6a6b33b21d2f73d58941bab574",
            "0x000000000000000000000000d570bf4598d3ccf214e288dd92222b8bd3134984"
          ],
          "data": "0x00000000000000000000000000000000000000000000d3c21bcecceda1000000",
          "blockHash": "0x6c560a62637cea5f9f2dcf4e2d04ffb32c05fd21dce49dd046441ba68480f2ac",
          "blockNumber": "0x1b20821",
          "blockTimestamp": "0x683aebee",
          "transactionHash": "0x88dc7f1ec5b4be69a91644942c01497bc8f9ca5cf18148ce35c6d1d8b07478c1",
          "transactionIndex": "0x39",
          "logIndex": "0x8",
          "removed": false
        },
        {
          "address": "0xd570bf4598d3ccf214e288dd92222b8bd3134984",
          "topics": [
            "0x671f6af1a2244f88c1a5e6c6310f86653d313027950723ffc12387348a9ed8b3",
            "0x000000000000000000000000b3b77d5d8b4581fb3c1cb10d37e3456a8ff049a6",
            "0x0000000000000000000000000000007eabfc2e6a6b33b21d2f73d58941bab574"
          ],
          "data": "0x00000000000000000000000000000000000000000000000000636c45c6f31dfc00000000000000000000000000000000000000000000d3c21bcecceda1000000000000000000000000000000000000000000000000000000000000000000000000000000000000000000000000000000000000000000000000000000683aebee000000000000000000000000000000000000000000000001a055690d9db800010000000000000000000000000000000000000000037790a0e8714009b49c0000",
          "blockHash": "0x6c560a62637cea5f9f2dcf4e2d04ffb32c05fd21dce49dd046441ba68480f2ac",
          "blockNumber": "0x1b20821",
          "blockTimestamp": "0x683aebee",
          "transactionHash": "0x88dc7f1ec5b4be69a91644942c01497bc8f9ca5cf18148ce35c6d1d8b07478c1",
          "transactionIndex": "0x39",
          "logIndex": "0x9",
          "removed": false
        }
      ],
      "logsBloom": "0x00000000000000000000000000200000000000000000000000020000004000000000000000000000000000000000000100000000000000000000000000000000000008000000000000000008004200000000000000000000800000000000000000000000000000000000000000000000000000000000000000000010000000000000000000000000000000000010000000040000000000004000800000000000000000000000000000000000000000000000000000000001000000000000000000000002000000000004000000000000000000100000000000000000000400000000000000000000000000000002000000000000000040000000000000000000",
      "type": "0x2",
      "transactionHash": "0x88dc7f1ec5b4be69a91644942c01497bc8f9ca5cf18148ce35c6d1d8b07478c1",
      "transactionIndex": "0x39",
      "blockHash": "0x6c560a62637cea5f9f2dcf4e2d04ffb32c05fd21dce49dd046441ba68480f2ac",
      "blockNumber": "0x1b20821",
      "gasUsed": "0x15b7f",
      "effectiveGasPrice": "0xf4362",
      "from": "0x0000007eabfc2e6a6b33b21d2f73d58941bab574",
      "to": "0xd570bf4598d3ccf214e288dd92222b8bd3134984",
      "contractAddress": null,
      "l1BaseFeeScalar": "0x1db0",
      "l1BlobBaseFee": "0x1",
      "l1BlobBaseFeeScalar": "0xd2730",
      "l1Fee": "0x220f",
      "l1GasPrice": "0x2c6",
      "l1GasUsed": "0x640"
    },
    {
      "status": "0x1",
      "cumulativeGasUsed": "0x2befe0",
      "logs": [
        {
          "address": "0xfbb9bffaa920162d70ab6a28ea37dd8a390f4bfa",
          "topics": [
            "0xddf252ad1be2c89b69c2b068fc378daa952ba7f163c4a11628f55a4df523b3ef",
            "0x000000000000000000000000d570bf4598d3ccf214e288dd92222b8bd3134984",
            "0x0000000000000000000000000000007eabfc2e6a6b33b21d2f73d58941bab574"
          ],
          "data": "0x00000000000000000000000000000000000000000000d3c21bcecceda1000000",
          "blockHash": "0x6c560a62637cea5f9f2dcf4e2d04ffb32c05fd21dce49dd046441ba68480f2ac",
          "blockNumber": "0x1b20821",
          "transactionHash": "0xb9bf710df16fce462eb7be678f02706eb33540a5a852ac57bbb228cfb3b9e9a3",
          "transactionIndex": "0x3a",
          "logIndex": "0xa",
          "removed": false
        },
        {
          "address": "0xd570bf4598d3ccf214e288dd92222b8bd3134984",
          "topics": [
            "0x671f6af1a2244f88c1a5e6c6310f86653d313027950723ffc12387348a9ed8b3",
            "0x000000000000000000000000fbb9bffaa920162d70ab6a28ea37dd8a390f4bfa",
            "0x0000000000000000000000000000007eabfc2e6a6b33b21d2f73d58941bab574"
          ],
          "data": "0x00000000000000000000000000000000000000000000000000636c45c6f31dfd00000000000000000000000000000000000000000000d3c21bcecceda1000000000000000000000000000000000000000000000000000000000000000000000100000000000000000000000000000000000000000000000000000000683aebee000000000000000000000000000000000000000000000001a0b8d55364ab1dfd00000000000000000000000000000000000000000376bcdecca2731c139c0000",
          "blockHash": "0x6c560a62637cea5f9f2dcf4e2d04ffb32c05fd21dce49dd046441ba68480f2ac",
          "blockNumber": "0x1b20821",
          "transactionHash": "0xb9bf710df16fce462eb7be678f02706eb33540a5a852ac57bbb228cfb3b9e9a3",
          "transactionIndex": "0x3a",
          "logIndex": "0xb",
          "removed": false
        }
      ],
      "logsBloom": "0x00000000000000000000000000200000000000000000400000020000000000000000000080000000000000000000000100000000000000000000000000000000000008000000000000000008004000000000000000000000000000000000000000000004000000000000000000000000020000000000000000000010000000000000000000000000000000000010000000040000000000000000800000000000000000000000000000000000000000000000000000000001000000000000000000000002000004000004000000000000000000100000000000000000000000000100000000000000000000000002000000000000000000000000000000000000",
      "type": "0x2",
      "transactionHash": "0xb9bf710df16fce462eb7be678f02706eb33540a5a852ac57bbb228cfb3b9e9a3",
      "transactionIndex": "0x3a",
      "blockHash": "0x6c560a62637cea5f9f2dcf4e2d04ffb32c05fd21dce49dd046441ba68480f2ac",
      "blockNumber": "0x1b20821",
      "gasUsed": "0x22566",
      "effectiveGasPrice": "0xf4362",
      "from": "0x0000007eabfc2e6a6b33b21d2f73d58941bab574",
      "to": "0xd570bf4598d3ccf214e288dd92222b8bd3134984",
      "contractAddress": null,
      "l1BaseFeeScalar": "0x1db0",
      "l1BlobBaseFee": "0x1",
      "l1BlobBaseFeeScalar": "0xd2730",
      "l1Fee": "0x235b",
      "l1GasPrice": "0x2c6",
      "l1GasUsed": "0x67c"
    },
    {
      "status": "0x1",
      "cumulativeGasUsed": "0x2ca73c",
      "logs": [
        {
          "address": "0xfbb9bffaa920162d70ab6a28ea37dd8a390f4bfa",
          "topics": [
            "0x8c5be1e5ebec7d5bd14f71427d1e84f3dd0314c0f7b2291e5b200ac8c7c3b925",
            "0x0000000000000000000000000000007eabfc2e6a6b33b21d2f73d58941bab574",
            "0x000000000000000000000000d570bf4598d3ccf214e288dd92222b8bd3134984"
          ],
          "data": "0x00000000000000000000000000000000000000000000d3c21bcecceda1000000",
          "blockHash": "0x6c560a62637cea5f9f2dcf4e2d04ffb32c05fd21dce49dd046441ba68480f2ac",
          "blockNumber": "0x1b20821",
          "blockTimestamp": "0x683aebee",
          "transactionHash": "0x1ed382703c053b285fdcf8635d11ae63e32f184d6e187d823294a6b37a96164c",
          "transactionIndex": "0x3b",
          "logIndex": "0xc",
          "removed": false
        }
      ],
      "logsBloom": "0x00000000000000000000000000200000000000000000000000020000000000000000000080000000000000000000000000000000000000000000000000200000000008000000000000000000000000000000000000000000000000000000000000000000000000000000000000000000020000000000000000000000000000000000000000000000000000000000000000040000000000000000800000000000020000000000000000000000000000000000000000000001000000000000000000000000000004000000000000000000000000000000000000000000000000000010000000000000000000000000000000000000000000000000000000000000",
      "type": "0x2",
      "transactionHash": "0x1ed382703c053b285fdcf8635d11ae63e32f184d6e187d823294a6b37a96164c",
      "transactionIndex": "0x3b",
      "blockHash": "0x6c560a62637cea5f9f2dcf4e2d04ffb32c05fd21dce49dd046441ba68480f2ac",
      "blockNumber": "0x1b20821",
      "gasUsed": "0xb75c",
      "effectiveGasPrice": "0xf4362",
      "from": "0x0000007eabfc2e6a6b33b21d2f73d58941bab574",
      "to": "0xfbb9bffaa920162d70ab6a28ea37dd8a390f4bfa",
      "contractAddress": null,
      "l1BaseFeeScalar": "0x1db0",
      "l1BlobBaseFee": "0x1",
      "l1BlobBaseFeeScalar": "0xd2730",
      "l1Fee": "0x220f",
      "l1GasPrice": "0x2c6",
      "l1GasUsed": "0x640"
    },
    {
      "status": "0x1",
      "cumulativeGasUsed": "0x1146e79",
      "logs": [
        {
          "address": "0xfbb9bffaa920162d70ab6a28ea37dd8a390f4bfa",
          "topics": [
            "0xddf252ad1be2c89b69c2b068fc378daa952ba7f163c4a11628f55a4df523b3ef",
            "0x0000000000000000000000000000007eabfc2e6a6b33b21d2f73d58941bab574",
            "0x000000000000000000000000d570bf4598d3ccf214e288dd92222b8bd3134984"
          ],
          "data": "0x00000000000000000000000000000000000000000000d3c21bcecceda1000000",
          "blockHash": "0x6c560a62637cea5f9f2dcf4e2d04ffb32c05fd21dce49dd046441ba68480f2ac",
          "blockNumber": "0x1b20821",
          "transactionHash": "0x2d03d4c7fa9c56986df07c4884aff69447b041bf94267b84f456e1e352bcd852",
          "transactionIndex": "0x3d",
          "logIndex": "0xfd",
          "removed": false
        },
        {
          "address": "0xd570bf4598d3ccf214e288dd92222b8bd3134984",
          "topics": [
            "0x671f6af1a2244f88c1a5e6c6310f86653d313027950723ffc12387348a9ed8b3",
            "0x000000000000000000000000fbb9bffaa920162d70ab6a28ea37dd8a390f4bfa",
            "0x0000000000000000000000000000007eabfc2e6a6b33b21d2f73d58941bab574"
          ],
          "data": "0x00000000000000000000000000000000000000000000000000636c45c6f31dfc00000000000000000000000000000000000000000000d3c21bcecceda1000000000000000000000000000000000000000000000000000000000000000000000000000000000000000000000000000000000000000000000000000000683aebee000000000000000000000000000000000000000000000001a055690d9db800010000000000000000000000000000000000000000037790a0e8714009b49c0000",
          "blockHash": "0x6c560a62637cea5f9f2dcf4e2d04ffb32c05fd21dce49dd046441ba68480f2ac",
          "blockNumber": "0x1b20821",
          "transactionHash": "0x2d03d4c7fa9c56986df07c4884aff69447b041bf94267b84f456e1e352bcd852",
          "transactionIndex": "0x3d",
          "logIndex": "0xfe",
          "removed": false
        }
      ],
      "logsBloom": "0x00000000000000000000000000200000000000000000400000020000000000000000000080000000000000000000000100000000000000000000000000000000000008000000000000000008004000000000000000000000000000000000000000000004000000000000000000000000020000000000000000000010000000000000000000000000000000000010000000040000000000000000800000000000000000000000000000000000000000000000000000000001000000000000000000000002000004000004000000000000000000100000000000000000000000000100000000000000000000000002000000000000000000000000000000000000",
      "type": "0x2",
      "transactionHash": "0x2d03d4c7fa9c56986df07c4884aff69447b041bf94267b84f456e1e352bcd852",
      "transactionIndex": "0x3d",
      "blockHash": "0x6c560a62637cea5f9f2dcf4e2d04ffb32c05fd21dce49dd046441ba68480f2ac",
      "blockNumber": "0x1b20821",
      "gasUsed": "0x15b7f",
      "effectiveGasPrice": "0xf4362",
      "from": "0x0000007eabfc2e6a6b33b21d2f73d58941bab574",
      "to": "0xd570bf4598d3ccf214e288dd92222b8bd3134984",
      "contractAddress": null,
      "l1BaseFeeScalar": "0x1db0",
      "l1BlobBaseFee": "0x1",
      "l1BlobBaseFeeScalar": "0xd2730",
      "l1Fee": "0x220f",
      "l1GasPrice": "0x2c6",
      "l1GasUsed": "0x640"
    }
  ],
  "libraries": [],
  "pending": [],
  "returns": {},
  "timestamp": 1748691951,
  "chain": 11155420,
  "commit": "c4b16b7"
}